:100000000C942D010C944A010C944A010C94551740
:100010000C944A010C944A010C944A010C944A0134
:100020000C944A010C944A010C94F81D0C94CC1EBB
:100030000C9434190C944A010C944A010C944A0112
:100040000C944A010C944A010C944A010C944A0104
:100050000C944A010C94D7190C944A010C944A014F
:100060000C944A010C944A010C944A010C944A01E4
:100070000C944A010C944A010C944A010C944A01D4
:100080000C944A010C944A010C944A010C944A01C4
:100090000C944A010C944A010C944A010C944A01B4
:1000A0000C944A010C944A010C944A0129001E0048
:1000B0001F002000210022002B0014001A0008005D
:1000C00015001700E00004001600070009000A00F0
:1000D000E1001D001B000600190005000000E20001
:1000E000E3002A002C002F00350027002600250001
:1000F000240023003100130012000C0018001C0023
:10010000340033000F000E000D000B00E500380036
:10011000370036001000110000004C00E7002152AB
:10012000280030003A003B003C003D003E003F000C
:1001300001000000A9000000000000003900BC0020
:10014000AA00BB000000000001000000A8000000A1
:10015000000000000000010001000100010001009A
:1001600045004400430042004100400001000000FF
:100170004D004B004E004A00010001004F005200AC
:1001800051005000010001002E002D000000000071
:1001900000000100010000000100010000AE00AFFE
:1001A00000DA0281FFD9F1DB20A4A62EAF00A0C0A7
:1001B00000A1C800AED580A81FD300408D14200038
:1001C0000E034C0069006C00790035003800000017
:1001D00010036C0069006C00690075006D0073000D
:1001E00000000403090409022200010100A0FA0929
:1001F0000400000103010100092111010001224056
:100200000007058103080001120100020000000838
:10021000D8042DEB00010102000105010906A1012E
:10022000050719E029E715002501950875018102E8
:100230009501750881010507190029FF150026FFA2
:1002400000950675088100050819012905950575B1
:10025000019102950175039101C011241FBECFEFDA
:10026000DAE0DEBFCDBF11E0A0E0B1E0EEEDF2E4F8
:1002700002C005900D92A034B107D9F724E0A0E4A4
:10028000B1E001C01D92AF35B207E1F70E94EF1156
:100290000C942E210C9400008230B8F46A30A8F43B
:1002A000463098F450E096E0699F400D511D1124AE
:1002B000FA019CE3899FE00DF11D1124EE0FFF1F51
:1002C000E455FF4F85919491089580E090E0089562
:1002D0000E944C01089581E0089581E008950E94F4
:1002E0006D01089508950E9472010895A5E0B0E09F
:1002F000ECE7F1E00C94AE2049835A83309147013A
:1003000089819A81311119C0662399F0222389F0DD
:100310000E94A106182F682F89819A810E947D066C
:1003200069817A81812F0E94E90C2596E3E00C9483
:10033000CA200E948F06182FF3CF0E94A106698160
:100340007A81F1CFFC01262F408151816281738136
:1003500084810E947601089581E00895CF93DF9310
:10036000EC0160E00E94A201BE010E947301DF91D6
:10037000CF9108950E94410E08950E94450E089560
:1003800008950E944C050E94C0012FEF84E39CE079
:10039000215080409040E1F700C0000008950E9485
:1003A000C1010E94FB1908950E94C1010E940C1A0C
:1003B00008950F931F93CF93DF938C0161E00E9408
:1003C000A201EC01B8010E946F01811106C080E01A
:1003D000DF91CF911F910F910895B801CE010E9436
:1003E00085158823A1F3B801CE010E941B14882330
:1003F00071F3B801CE010E94F714882341F3F8018C
:100400008281882361F0C330FCE7DF07E9F058F40C
:10041000C115ECE7DE07A9F0C130DC47B9F0C8012F
:100420000E946B01D5CFCB358CE7D807A9F0CC352E
:10043000ECE7DE0771F0CA35DC4789F70E94A30AB2
:10044000EECF0E94CF01C3CF0E94AB0A0E94D4011D
:10045000BECF0E94990AE3CF0E94A70AE0CF0E9474
:1004600011190E945B020E94C31308950E945F024B
:100470000E941619089508950E943B02089581E094
:1004800008950895CF93DF93D82F0E943F02C82F7D
:10049000882319F08D2F0E9441028C2FDF91CF917C
:1004A00008950895CF93C82F0E943C028C2F0E947C
:1004B0004202CF91089580E00E94520208950E9466
:1004C0007B180E9452020895CF930E947B18C82F78
:1004D000809142018C1779F0C09342010E94A019CB
:1004E00060934301709344018093450190934601CA
:1004F0008C2F0E945202CF910895ABE0B0E0E3E868
:10050000F2E00C94AF204F83588769877A878B87F6
:1005100061110E94E4091E821D8285E0FE0137966A
:10052000DE01119601900D928A95E1F78C819D81F3
:10053000892B61F449815A816B817C818D819E81F7
:100540000E940D092B96E2E00C94CB2089819A81C0
:1005500089238F3F79F3CE0101960E94AC0181116E
:10056000E9CFF0CFFC01808191810E94D3060895EC
:10057000CF93C82F8823B9F08CEF8C0F813AA8F461
:100580006C2F80910001909101010E94AC1888238A
:1005900029F08C2F0E94A4090E94050A8C2F0E942A
:1005A0009C090E94050ACF91089580E28C0F883043
:1005B000D0F7C77081E001C0880FCA95EAF70E94A2
:1005C000C709EFCF882341F09CEF980F913A28F4A8
:1005D0000E94A4090E94050A089590E2980F98309D
:1005E000D8F7877091E001C0990F8A95EAF7892FB3
:1005F0000E94CD09EFCF1F93CF93DF93182FEB010C
:100600000E94B802209739F4812F0E94E202DF9104
:10061000CF911F9108958FE99FE00197F1F700C0F6
:1006200000002197EFCF70E060E0893311F460E5BE
:1006300070E00E94FB020895882321F00E94C70900
:100640000E94050A0895882321F00E94CD090E9486
:10065000050A0895B0E0A0E0E0E3F3E00C94A820E0
:100660006C01D62FC72FFC011281F580F2949FE018
:10067000F9220E94BD09E82E8823B9F0E12E11234A
:10068000A1F08C2F807F803421F080E28D0F8830A4
:10069000D0F080912F0282FF16C082E00E94680A8B
:1006A0000E94BD0991E0E82EE926BC2EB2948FE0AD
:1006B000B822FBE0FB1508F468C0EB2DF0E0E05D2C
:1006C000FE4D0C949920E12CF0CF0C2F0F70C07FC1
:1006D00011F00295007F112399F0002359F080E278
:1006E0008D0F883010F0D11107C0802F0E94C709EC
:1006F0000E94050A8D2F41C0802F0E94D709F8CF94
:100700008D2F0E94E202002309F43FC080E28D0F8A
:10071000883010F0D11104C0802F0E94CD0903C091
:10072000802F0E94DD090E94050A2FC00C2F0F7038
:10073000C07FC03211F00295007FDD2381F0D130FF
:1007400009F468C0112309F472C0FF2009F468C0DD
:10075000F601858180FFCECF8F70858361C0809147
:100760002F0282FD33C0112359F0002329F0802F7E
:100770000E94C7090E94050A80E00E94B80205C0D5
:1007800080E00E94E2020111C7CFEB2DE850FF0B81
:10079000349720F40E947B180E945202EE2089F0C8
:1007A0000E94B90980FD0DC0F60112820E94B309B2
:1007B0000E94DB05C6010E9418050E94B3090E9431
:1007C000EB05CDB7DEB7E9E00C94C420112389F026
:1007D000F11006C00E94E709802B0E941C03D5CFB0
:1007E00021E0F212F7CF0E94E709802B0E94EE0968
:1007F000CCCFF11006C00E94FB09802F0E9423037A
:10080000C4CF31E0F31609F2802F0E9423030E9427
:10081000FB09BBCF112331F085E08F1508F4B5CF6C
:10082000802FDBCF94E09F1508F4AFCFE6CFFF20F9
:1008300021F3D93349F4FFEF27EE33E0F1502040A4
:100840003040E1F700C000008D2F0E94E2029DCFF2
:100850008C2F8370A1F5111198CF4D2F429546959D
:100860004770440F440F2D2F2F7030E0042E02C02C
:10087000220F331F0A94E2F790E080E0D4FF09C012
:100880008FE090E002C0880F991F4A95E2F78095AB
:100890009095C695C695C370822B932BC23049F0B4
:1008A00058F4C13019F00E94AB056FCF0E94A20529
:1008B0006CCF0E94B40569CF0E949F0566CF8695D4
:1008C000112311F08C2F8170882309F45ECF4D2FF6
:1008D000429546954770440F440F2D2F2F7030E0FE
:1008E000042E02C0220F331F0A94E2F790E080E04A
:1008F000D4FF09C08FE090E002C0880F991F4A958D
:10090000E2F780959095C695C695C370822B932B80
:10091000C23049F058F4C13019F00E94160635CFA4
:100920000E940D0632CF0E941F062FCF0E94C305E2
:100930002CCFCF70112329F08C2F0E94DB058D2F37
:100940004CCF8D2F0E9423038C2F0E94EB051DCFCF
:10095000D23F51F160F4D03FB9F0D13F81F0112383
:1009600009F449C0F110C6CE8C2F8F7121C0D33F3E
:1009700011F1D43FA1F780912F0282FD26C08C2F68
:100980008F71112311F314C0112349F084E08F15E6
:1009900008F4FBCE8C2F8F710E94FD05F6CE95E0FA
:1009A0009F1508F4F2CEF6CF8C2F8F711111CDCF99
:1009B0000E94DB05EACE112329F08C2F8F710E9453
:1009C000CF05E3CE0E94CA05E0CE112349F0CF71D6
:1009D0008C2F0E94DB0563E08C2F0E944A0AD5CE43
:1009E00081E00E94680AE1E0EF1508F0CECE82E0D7
:1009F0000E94680ACACEF1101CCF8C2F8F71A5CF30
:100A00000F931F93CF93DF93EC01688179818A81E3
:100A10000E94DE068C010E9428060E949E05B801F5
:100A2000CE010E942A03DF91CF911F910F9108956B
:100A3000CF93DF93EC018B819C81892B29F08881F6
:100A4000998189238F3F51F4DF91CF910895CE0191
:100A50000E940005CE010E94AE01F6CFCE010E9499
:100A6000D9018111F4CF0E94BD09882369F38A81DD
:100A7000882351F380912F0282FFE6CF82E00E940B
:100A8000680AE2CF0E94E4090E94050A08950E94C4
:100A9000AC090E94420508950E94D4090E944705AE
:100AA000089592959F70963091F058F4925F9F70E0
:100AB000923058F4803F19F030F4883E30F481E0F1
:100AC00008959A5FF4CF843FD1F380E00895883E83
:100AD000B0F3813FD1F7F3CFFC0183819481892B5F
:100AE00029F08081918189238F3F11F480E008955E
:100AF000808191810E94D3060E9451050895A5E04E
:100B0000B0E0E5E8F5E00C94AF202596E2E00C9427
:100B1000CB20A6E0B0E0EFE8F5E00C94AF202696FD
:100B2000E2E00C94CB2008950E94930508950E9462
:100B3000940590936B0180936A01089508950E9433
:100B40009705089520916A0130916B01822B932BB8
:100B50000E949705089520916A0130916B018223CC
:100B600093230E949705089520916A0130916B01AB
:100B7000822793270E94970508950E949305089560
:100B80000E94BD0508950E94C0059093690180935D
:100B90006801089590E080E00E94C305089521E077
:100BA00030E0A90102C0440F551F8A95E2F7CA013F
:100BB0000E94C305089521E030E002C0220F331FD8
:100BC0008A95E2F78091680190916901822B932BBD
:100BD0000E94C305089521E030E002C0220F331FB8
:100BE0008A95E2F72095309580916801909169018E
:100BF000822393230E94C305089521E030E002C0C0
:100C0000220F331F8A95E2F7809168019091690164
:100C1000822793270E94C30508952091680130918F
:100C20006901822B932B0E94C305089520916801CE
:100C300030916901822393230E94C3050895209176
:100C4000680130916901822793270E94C3050895A6
:100C50000895262F277091E001C0990F2A95EAF791
:100C600023E0769567952A95E1F7660F771F660F63
:100C7000771FFA01E60FF71F50E040E0682F70E0A1
:100C80008191DF0111979B01042E02C036952795B3
:100C90000A94E2F7217021952827292328272C93ED
:100CA0004F5F5F4F4430510559F70895A82FA77043
:100CB00023E0969587952A95E1F7880F991F880F6D
:100CC000991FFB01E80FF91F50E040E080E02191FF
:100CD00030E00A2E02C0369527950A94E2F721707B
:100CE0003327042E01C0220F0A94EAF7822B4F5FAC
:100CF0005F4F4430510559F70895262F9A3070F40C
:100D0000863060F4682F70E086E0989F600D711D5A
:100D1000112448E451E0822F0E9429060895292FCA
:100D20009A3068F4863058F490E068E471E036E078
:100D3000239F800D911D11240E945606089580E086
:100D40000895B0E0A0E0E7EAF6E00C94A8207C016A
:100D5000009168011091690180916A0190916B0185
:100D6000082B192BCFE0D0E0CC24C394D12CBC2E7F
:100D7000C6010C2E02C0880F991F0A94E2F7802347
:100D80009123892B49F4219790F7B12C8B2DCDB766
:100D9000DEB7E9E00C94C420B7018C2F0E94F50C5B
:100DA000019789F3F3CFCF93DF93EC010E94A10663
:100DB000BE010E94F50CDF91CF9108951F93CF9350
:100DC000DF93EB0190914701992339F0CB010E9409
:100DD000D306DF91CF911F910895882369F0CB014D
:100DE0000E94A106182F682FCE010E947D06BE0129
:100DF000812F0E94F50CEDCFCB010E948F06182F9A
:100E0000F6CF1F93CF93DF93C0916C0116E08091D2
:100E10006D018C1304C0DF91CF911F910895D0E034
:100E20001C9FF0011D9FF00D1124E259FE4F4081DF
:100E3000518162817381848195810E948905219607
:100E4000C770E5CF40919E0150919F016091A00134
:100E50007091A1018091A2019091A3010E94890546
:100E600008951F93CF93DF938091A301807F09F0B2
:100E700049C08091A001882309F444C080916C018D
:100E8000C0916D0160919E0170919F01A091A1019F
:100E9000B091A201D62FD72316E0C81799F190E0A0
:100EA000109711F0DF3F19F401968770F6CF189F65
:100EB0009001199F300D1124F901E259FE4F418133
:100EC0004713F2CF40814613EFCF42814111ECCF5F
:100ED000438154814A1B5B0B483C510528F78091A4
:100EE000A3018F7080618093A301F901ED58FE4F3B
:100EF00080818F70806180838EE991E00E94180567
:100F00000E940107DF91CF911F910895A1E1B0E008
:100F1000ECE8F7E00C94A7208C0185E0F801DE01F5
:100F20001D9601900D928A95E1F7F801E2808EE915
:100F3000C82E81E0D82E6091A1017091A2016115A7
:100F4000710509F44EC190919E0120919F01892F56
:100F500082238F3F09F445C140815181A380B48031
:100F6000F090A001F501E61BF70BFF2009F4EAC0A1
:100F70008091A301382F307FE83CF10508F0A3C031
:100F800031116DC0FE2C251316C0941314C0E1104E
:100F900012C08F7080618093A3010E942207C60156
:100FA0000E9418058091A301F80185838F2D619619
:100FB000EAE00C94C320A114B10429F0842F852306
:100FC0008F3F09F027C180E0F82FF170DF2E80FFFE
:100FD0003CC080916C0120916D0136E0821315C0F8
:100FE0004D875E878D859E850E94D306292F229589
:100FF0002F702230F0F0243018F59F70F1F0F801D6
:101000009581907FD1F4D12C1EC090E0389FF001E3
:10101000399FF00D1124E259FE4F6181651306C01E
:101020006081641303C06281E6120FC0019687706D
:10103000D5CF9F7011F0882331F3805E883018F38C
:10104000C8010E941805FD2CB1CFEE2009F4AECFE7
:101050008091A30181608093A301F12CA7CF251378
:1010600006C0941304C0F801EE2009F487C0C8013B
:101070000E946C05882319F1EE2009F18091A301EB
:10108000803270F020919E0130919F0138872F832C
:101090001986BB86AA868C87CE0107960E94180502
:1010A00086E0F801AEE9B1E001900D928A95E1F792
:1010B0000E9431070E942207FF24F39477CFC801D2
:1010C0000E941805F9CF311113C07A2DB98AA88A68
:1010D0006E2D89890E947F058EE991E00E94180596
:1010E00086E0F60111928A95E9F70E942207B5CFB2
:1010F00025130FC094130DC0E1100BC0F8018583B8
:10110000C8010E94180586E0F60111928A95E9F758
:101110004DCFC8010E946C05882389F2EE2079F238
:101120008091A301803208F4BBCF20919E013091C1
:101130009F013A8329831B82BD82AC828E83CE01BC
:101140000196ACCFE83CF10508F03EC0FE2CEE2045
:1011500009F4B5CF25132AC0941328C08091A301A8
:1011600080FD1BC0982F907FC1F0F8018583903FD0
:1011700031F0982F907F905F8F70892B8583C80105
:101180000E94180586E0F801AEE9B1E001900D92E9
:101190008A95E1F70E94220709CF86E0F801AEE9BF
:1011A000B1E001900D928A95E1F700CFC8010E944D
:1011B0006C05811175CF8091A30181608093A3019B
:1011C000C8010E941805F2CE7A2DB98AA88A6E2D20
:1011D00089890E947F0586E0F60111928A95E9F7D8
:1011E000D9CFEE2009F46BCFC8010E946C05F82E10
:1011F000882309F464CF86E0F801AEE9B1E00190FC
:101200000D928A95E1F78EE991E00E94B2020E9468
:101210003107C0CF81E08E25D7CEACE0B0E0E3E16E
:10122000F9E00C94AE204F83588769877A878B87C3
:101230009C87CE0107960E948607882369F08A85DD
:101240009B85892B39F04F815885842F85238F3FCB
:1012500009F06BC016E05FC086E0FE013796DE0144
:10126000119601900D928A95E1F78A859B85892BCD
:1012700089F388859F8189238F3F61F320916D01D8
:1012800030E0C90101968770992740916C01481799
:10129000190671F40E944C0510926D0110926C01B8
:1012A00086E0EEE9F1E0DF011D928A95E9F7D2CF01
:1012B00096E0929FD001939FB00D1124A259BE4F8A
:1012C000FE01319601900D929A95E1F780936D01A0
:1012D0000E940107BFCF819FC001112482599E4FF8
:1012E0000E9486078823E9F0E0916C011E9FF001BF
:1012F0001124E259FE4F40815181628173818481C2
:1013000095810E94890580916C0190E0019687701B
:10131000992780936C0180916C0190916D018913E4
:10132000DACF2C96E3E00C94CA2069857A858B8508
:101330009C850E9489058ECF682F80910001909135
:1013400001010E94E2180895682F80910001909198
:1013500001010E94E518089580910001909101011A
:101360000E94E81808958091AC0185958595859532
:1013700008958091AC01877008959091AC019770A9
:1013800081E009F480E008958091B701089590917B
:10139000B701892B8093B701089580959091B7018B
:1013A00098239093B70108951092B70108959091F2
:1013B000B601892B8093B601089580959091B6016E
:1013C00098239093B60108951092B60108958091E4
:1013D000AD01089508950E94EA09089590912F02A1
:1013E00092FF08C09091AD01981721F08093AD0154
:1013F0000E94EB0908958091AD01882329F0109295
:10140000AD0180E00E94EB090895CF93DF93E09156
:101410000001F09101018091B7018083E09100010A
:10142000F091010180819091B601892B8083909188
:10143000AD01992381F0E0910001F09101018081DB
:10144000892B808380910001909101010E949A185C
:1014500081110E94FB09C0910001D091010148E077
:1014600050E064EA71E0CE010E94D620892B59F049
:1014700088E0FE01A4EAB1E001900D928A95E1F7BF
:10148000CE010E948F18DF91CF91089508950E9498
:10149000460A089590912F0292FF11C098E0899F0B
:1014A00090011124622B6093AC010E94DB058091B6
:1014B000AC018595859585950E94470A08950E94FF
:1014C000DB0508951092AC0180E00E94470A089560
:1014D0009091AC01809589238093AC01282F2770CF
:1014E00091F4282F082E000C330B9217130659F095
:1014F00090912F0292FF07C08595859585950E9452
:10150000EB050E94620A089590912F0292FB222718
:1015100020F9281769F080FB92F990932F028091AF
:101520002E0290912F020E94CC0A82E00E94680A4B
:10153000089580912F0282FB882780F991E0892706
:101540000E94840A089581E00E94840A089580E040
:101550000E94840A08956FEF7FEF90E080E00E9480
:101560001821089590E080E00E94F42021E0873E59
:101570009E4F09F020E0822F089582E090E00E94C3
:10158000EC20089583E090E00E94EC20089584E030
:1015900090E00E94F4200895BC0184E090E00E9455
:1015A00018210895AB01BC018FE090E00E940C214E
:1015B0000895AB01BC0183E190E00E940C210895E5
:1015C00060E070E0CB010E94D90A089560E070E00D
:1015D000CB010E94D20A0E94E00A089567EE7EEFD6
:1015E00090E080E00E94182160E082E090E00E949C
:1015F000FA2060E083E090E00E94FA2010926B01F4
:1016000010926A0160E074E184E090E00E94182189
:1016100060E086E090E00E94FA206FEF87E090E0C3
:101620000E94FA2040E050E0BA0188E090E00E9479
:101630000C2160E08DE090E00E94FA2040E050E054
:10164000BA0188E190E00E940C2160E087E190E01F
:101650000E94FA2040E050E0BA018CE190E00E9444
:101660000C2170E060E080E290E00E94182140E0F0
:1016700050E0BA0188E190E00E940C210E94E60A45
:1016800008950E94EE0A0895682F8EE090E00E946F
:10169000FA2008950E94A0196093C8017093C901AF
:1016A0008093CA019093CB016093C4017093C501EC
:1016B0008093C6019093C7010895089508950E94EC
:1016C0005E0B089508950E94620B08958FE19EE0DD
:1016D0000E9471180E945D0B0E945F0B08950E948A
:1016E000EB0F0895089508950E94720B0E94730BEA
:1016F00008950E94220E0E94510208950E948B19A3
:101700000E94DF0D0E9406100E944C0F0E94790B70
:101710000E94FC1180E00E9457120E9410100E944B
:10172000630B0895AAE0B0E0E8E9FBE00C94A72081
:101730000E946F0F8AEBA82E81E0B82E750110E091
:10174000F70101917F01812F0E94480E1F5F1A301F
:1017500009F441C00817A1F38091CC0181FD0E94DA
:101760004E0E0E946F0BC82E10E0812F0E94480E73
:10177000082FF50181915F01081731F1F12CEE245A
:10178000E394D02ED8268D2D8E21B1F0CC20A1F05F
:10179000FE821F8391E0802F8E2109F490E09887CC
:1017A0000E9494198160782F9A8789874E815F8182
:1017B00068858A850E947D02F394EE0CF6E0FF12A4
:1017C000E2CFF501319700831F5F1A3071F60E9456
:1017D0004A0B11E021C00813BFCF0E9494198C015D
:1017E0008091B8019091B90108171907A1F08FEF06
:1017F00089838A831B820E9494198160782F9D833C
:101800008C8349815A816B818D810E947D02109366
:10181000B9010093B80110E00E94EB0F0E94E3139E
:1018200011110E94B6120E9464022A96EAE00C94FA
:10183000C320CF93DF930E94FA0CEC01811522E5BF
:10184000920760F5811530E5930708F0A8C0883E3F
:10185000910598F4803E9105E8F4853A910540F4AD
:1018600084309105B8F40197A9F0D0E0C0E012C02F
:101870008D3C9105D0F3D0650DC08115904408F0E2
:1018800046C0C11580E2D80708F096C0C11591E0A6
:10189000D90758F3CE01DF91CF910895803822E522
:1018A0009207A8F4803632E5930708F05CC08034D4
:1018B00042E5940708F042C0C03282E5D80750F1F3
:1018C000CF71D0E0DC2FCC27C16FD06AE3CFC03C12
:1018D00092E5D90780F48C2F8F71C03AD24508F475
:1018E00057C00E949C0DC82FD0E0DC2FCC27CC27FE
:1018F000DF71D062CFCFC03E32E5D30708F0B5CF5D
:10190000DC2FCC27CC27DF71C06FD06AC3CFDF704C
:10191000D06AC0CF2C2F2695269540E2249F9001B7
:1019200011248C2F8370C1E0D0E002C0CC0FDD1FEA
:101930008A95E2F7C22BD32BDD68ACCF282F2695F2
:101940002695277080E2289F900111248C2F8370A8
:10195000C1E0D0E002C0CC0FDD1F8A95E2F7C22BB8
:10196000D32BDC6897CF282F26952695277090E2F9
:10197000299F900111248C2F8370C1E0D0E002C018
:10198000CC0FDD1F8A95E2F7C22BD32BDA6882CF0A
:10199000C82FD0E0DC2FCC27C46FD06A7BCF8F71EB
:1019A0000E949C0D35E0D695C7953A95E1F7CF702A
:1019B0009C2FEC01D0696ECF8D2F8F710E949C0DF2
:1019C00090E0982F882788279F719C012C2BE90194
:1019D00090CF462F7A3030F4663020F4672F0E9483
:1019E0006801089590E080E008950E94E90C0E944B
:1019F000190C089582389105B9F1B0F4813391053D
:101A000009F47DC048F48932910509F46DC08A3229
:101A1000910509F47BC008958533910509F45FC0F1
:101A20008933910509F10895833E9105D9F138F480
:101A3000803E910529F1823E910579F10895863E17
:101A40009105D9F1873E910509F43EC0843E910588
:101A500041F520912F0221FF24C080912E0284FDA8
:101A600019C087EE90E0089520912E02237009F0AE
:101A70005AC020912F0223FF14C089E290E00895FC
:101A800020912E0220FD38C030912F0230FF09C076
:101A900024FF43C090E080E0089520912E0222FDB3
:101AA000F7CF089520912E0222FD3AC030912F02E7
:101AB00030FD39C024FFF5CFEDCF20912E0223FF5A
:101AC000F0CF24FDE7CFCDCF20912E0223FD2EC0F5
:101AD00030912F0231FFEECF84EE90E008952091F7
:101AE0002E0225FFDECFC9CF20912E0225FD21C079
:101AF00020912F0223FFD5CF89E390E0D2CF209110
:101B00002E0226FFCECF8AE290E0089520912E0289
:101B100026FFC7CF81E390E0089583EE90E008951B
:101B200082EE90E0089580EE90E0089586EE90E0D9
:101B3000089585E390E0089590912E0292FF06C0EB
:101B4000282F28712830F9F4877F846093FF06C01E
:101B5000282F28712831F1F4877E846120912F028B
:101B600020FF06C0382F38713830D9F4877F816064
:101B700021FF06C0282F28712831D1F4877E81618A
:101B800094FD877E0895282F24712430F9F68B7FE9
:101B90008860DCCF282F2471243101F78B7E886187
:101BA000DDCF382F3171313019F78E7F8860E0CF6B
:101BB000282F2171213121F78E7E8861E1CF10928B
:101BC0002A0210922B0210922C0210922D020895DC
:101BD000CF92DF92EF92FF926B017C010E94EB0F9C
:101BE00081110EC00E94A019C61AD70AE80AF90A84
:101BF000C0922A02D0922B02E0922C02F0922D0287
:101C0000FF90EF90DF90CF9008950F931F930E9465
:101C1000EB0F882329F00E94A0191F910F910895BE
:101C20000E94A01900912A0210912B0220912C02EF
:101C300030912D02600F711F821F931FEECF80E045
:101C4000089508950E94B20A811102C00E94410BBA
:101C50000E94BD0A8093CC010E94C70A90932F0274
:101C600080932E020E94210E0E94C20A90E00E94E0
:101C70009F0580916801909169010E94C0050895B7
:101C800008950E94400E089508950E94440E0895FC
:101C9000E82FF0E0E55CFD4F80810895089580EA2B
:101CA0008A95F1F7089500C008950E944F0E089597
:101CB00008950E94580E0895A5E0B0E0E2E6FEE027
:101CC0000C94AB200E94EB0FF82E60914502882304
:101CD00009F440C085E0E82E8E010F5F1F4FF80128
:101CE0008E2D11928A95E9F7862F90E0B801855CD8
:101CF0009D4F0E941E108823B9F08091300290E021
:101D000045E050E0B801855C9D4F0E94D62021E05F
:101D10002093CD01892B91F4F12C0E94BD018F2DD0
:101D20002596E6E00C94C7208091CD018823A1F38D
:101D3000F8011192EA94E9F71092CD01A0913002D6
:101D4000B0E0A55CBD4F85E0F80101900D928A9549
:101D5000E1F7E3CF70E0655C7D4F8091300290E069
:101D6000855C9D4F0E94A5100E94590ED8CFF89413
:101D7000E82FE295EF70F0E031A1282F2F7081E07D
:101D800090E001C0880F2A95EAF7982F9095932349
:101D900091A392A1892B82A3789408950F931F9306
:101DA000CF93DF93C1E3D1E089918F3F11F00E947F
:101DB000B70E81E0C633D807B9F7CBE2D1E001E333
:101DC00011E089918F3F11F00E94B70E0C171D078B
:101DD000C1F7DF91CF911F910F910895B0E0A0E07E
:101DE000E4EFFEE00C94A920EC01D62E062F10E0C3
:101DF000C8018F5C9E4F7C01FC0180818F3F09F4FC
:101E000044C0F894E82FE295EF70F0E091A18F7054
:101E100021E030E001C0220F8A95EAF7892F822B5A
:101E200081A382A12095282322A378940E94530E97
:101E3000EBE2F1E031E0C12C21912F3F59F1A22FCB
:101E4000A295AF70B0E090968C9190E02F7002C098
:101E5000959587952A95E2F780FD1CC0832FC82AA7
:101E6000330F81E0E133F80739F7F70180818F3FC5
:101E700011F00E94B70E61E0C11001C060E08D2D2D
:101E80000E94550EC00FD11FC882CDB7DEB7E8E063
:101E90000C94C52080E0E3CF809102018091020183
:101EA00095E0811190E09093450285E0891B809335
:101EB00030020E94CE0E8AE0EBE3F2E0DF01982FC1
:101EC0001D929A95E9F7E1E3F2E0DF011D928A9510
:101ED000E9F785E00E94AD0F0E94BA010895AAE0DB
:101EE000B0E0E5E7FFE00C94AC208E010F5F1F4FE0
:101EF0008AE0F80111928A95E9F7F12C6F2DC8015B
:101F00000E94EE0EF394F5E0FF12F8CF4AE050E0A5
:101F1000B80181E392E00E94D62021E0009709F405
:101F200020E0892B41F08AE0F801A1E3B2E00190C2
:101F30000D928A95E1F76091450270E0655C7D4FF6
:101F400045E081E392E00E94AE0F182F0E945C0EE4
:101F5000812B2A96E5E00C94C8200895CF92DF9259
:101F6000EF92FF920F931F93CF936C017B01042F8D
:101F7000222349F081E08093D0010E94941990932C
:101F8000CF018093CE01C091D001C1110AC0C0E041
:101F90008C2FCF911F910F91FF90EF90DF90CF90FA
:101FA00008958091CE019091CF010E94AC190597C0
:101FB00070F310E0A801B601C7010E94D620892B5A
:101FC00041F0A801B601C7010E94E3201092D001A0
:101FD000DFCFC0E0FBCF8091D301811107C00E9409
:101FE0007820882351F081E08093D30181E09091A3
:101FF000D301913009F080E0089582E08093D3010D
:102000000E947320F3CF0E94EB0F08950E940310EB
:10201000809302010E94EB0F81110E9454100895D9
:102020000E94EB0F811102C00E945710089581E0B9
:102030009091D4019A3008F080E008950F931F9397
:10204000CF93DF93EC018B018091D4018A30B8F4F7
:10205000B801CE010E94A210C82F811122C0809128
:10206000D4018F3FB9F40E9494199093D2018093C8
:10207000D1018C2FDF91CF911F910F910895809105
:10208000D1019091D2010E94AC19843F914000F798
:10209000C0E0EFCF8F5F8093D4018A3020F7C1E09A
:1020A000E8CF1092D401E5CF0E940F1708950E9447
:1020B00012170895B0E0A0E0E0E6F0E10C94AA2049
:1020C0007901C82F880FDD0B41155105A9F0FE01DC
:1020D00093E0EE0FFF1F9A95E1F7ED5FFE4F8181D0
:1020E00092818B529E4F208130E04217530708F4B3
:1020F0009A01A9010E94E320CE010E94FB17D82E6D
:102100008823D1F001151105B9F083E0CC0FDD1F54
:102110008A95E1F7FE01ED5FFE4F438150E0041721
:10212000150708F4A801CD5FDE4F6C817D816B52ED
:102130007E4FC7010E94E3208D2DCDB7DEB7E7E0CB
:102140000C94C6200E94941108950E94AB1108952A
:10215000A4E0B0E0EEEAF0E10C94AD206091EC0177
:102160007091ED018091EE019091EF010E94BB19F9
:1021700011E0643671058105910518F10E94050E84
:102180006E5F7F4F8F4F9F4F69837A838B839C83D2
:1021900010E000E030E020E044E050E0BE016F5F7E
:1021A0007F4F82E00E945A10182F882351F00E941E
:1021B000A0196093EC017093ED018093EE01909370
:1021C000EF01812F2496E4E00C94C920B0E0A0E058
:1021D000ECEEF0E10C94A7207C015B016A010E9407
:1021E000171001E010E0882311F00AE010E0C1E0D0
:1021F000D0E0B501C701F6010995811104C021960F
:102200000C171D072CF4CDB7DEB7EAE00C94C32001
:10221000CC9F9001CD9F300D300D112490E080E0D7
:1022200045E34A95F1F70000019682179307C1F73D
:10223000E0CFA6E0B0E0EFE1F1E10C94A7207B0154
:10224000C0903601D090370101E010E09E012A5F76
:102250003F4F50E040E070E060E080E00E945A10A4
:10226000182F882309F448C056018FEFA81AB80A1E
:102270006091E8017091E9018091EA019091EB0190
:102280000E94BB19643671058105910568F105E06E
:1022900010E09E012F5F3F4F50E040E070E060E0B3
:1022A00081E00E945A10D82E65E070E0C5010E94BE
:1022B000FD1111E09E81981310E01D2141F10E9453
:1022C000A0196093E8017093E9018093EA0190936B
:1022D000EB0185E0FE013196A3EEB1E001900D9295
:1022E0008A95E1F711E013C065E070E0C5010E9436
:1022F000FD119E818913CBCF85E0F6013196DE0179
:10230000119601900D928A95E1F71111E2CF85E0C7
:10231000E3EEF1E0D70101900D928A95E1F7812F6C
:102320002696EAE00C94C3200F931F93CF93DF937C
:10233000EC018B0149E151E10E94E610882331F064
:1023400048EA50E1B801CE010E94E610DF91CF913A
:102350001F910F9108950F931F93CF93DF93C09117
:102360003601D0913701CE01019625E0FB01DC0159
:1023700001900D922A95E1F765E070E00E94FD1151
:1023800088836E817F81888599850091DF01109116
:10239000E0012091E1013091E201601771078207AD
:1023A000930751F06093DF017093E0018093E101A6
:1023B0009093E2010E94E80DDF91CF911F910F9160
:1023C00008950E94601B0E947E0B0E946D1B089561
:1023D0000E94721B0E94920B0E948C1B08950E9407
:1023E0002D190E94461B0E94660B0E94E1110E945B
:1023F000E8110E94740BFBCF0895FC01680F791F50
:102400008FEF91E3E617F70709F4089521918227EA
:1024100028E030E087FF06C0880F89272150310966
:10242000C9F7F0CF880FFACFB0E0A0E0EAE1F2E11F
:102430000C94A9206C017B0164E670E088E70E949F
:10244000CF15EC0197FD12C010E000E0F601E00F9F
:10245000F11F849164E670E00E943B16EC01892B29
:1024600029F40F5F1F4F0E151F0581F70E94B1164B
:10247000CE01CDB7DEB7E8E00C94C52008950E94E8
:102480003E120895E6E4F2E080E092E0DF019C0174
:102490001D9221503040E1F7F0934D04E0934C043D
:1024A0008FEF9FEF909316028093150208950E947C
:1024B0003E120E943F128093110280FD0FC080E8FF
:1024C000809310020E94C9156DE070E083EB91E0EB
:1024D0000E941412892B21F080E0089580E2F0CF51
:1024E0008091110263E070E081FD26C080EB91E0F5
:1024F0000E941412892B81F76DE070E080EA91E070
:102500000E941412892B41F70E94A019605A75414C
:102510008F4F9F4F609348047093490480934A04FF
:1025200090934B040E94421281E0809314028093A6
:1025300013021092120208958DEA91E0D9CF2091F2
:10254000100236E0839FC0011124629F800D911D0F
:102550001124811522E0920714F090E080E08A5B5C
:102560009D4F90934D0480934C04089580911402E4
:10257000811103C08091130208950E94A019605A2E
:1025800075418F4F9F4F6093480470934904809327
:102590004A0490934B04809113028111EBCF62E0C7
:1025A00070E08EE991E00E941412892B19F781E006
:1025B00080931302DFCFB0E0A0E0E1EEF2E10C94F3
:1025C000A3208091150290911602892B09F4BDC0B9
:1025D00080911402882309F4B8C0809112028111FD
:1025E000B4C00E94B6122091150230911602211536
:1025F000310509F4AAC080E041E050E0082F10E066
:10260000EA01082E02C0CC0FDD1F0A94E2F7BE01DA
:1026100062237323672B11F48F5FF0CF9091110227
:1026200090FF98C0880F880F880F80931D0110922B
:102630002001895F80931E0183E08093210124E6BD
:1026400030E047E050E06BE171E088E70E946916F6
:10265000892B09F07AC0A80125E0440F551F2A955F
:10266000E1F78091110280FF87C0E0EFF1E080E2A6
:10267000DF011D928A95E9F70CE311E088E3E82E6B
:1026800081E0F82E97E0992E88248394D801ED916B
:102690008D01D7016D917D01640F752F711D6A5BEE
:1026A0007D4FF0E0E051FE4F30E020E0792C721ACF
:1026B000A82C022E01C0AA0C0A94EAF76B0190E044
:1026C000D6018D916D018A21A72DA91BA770BA2E65
:1026D0000A2E000CBB0B682E01C0660CBA94EAF7F8
:1026E000B62CB195A195B109A770BB2701C08695FD
:1026F000AA95EAF7A62DA82B80818A2B80839F5F5D
:102700009830F1F62F5F3F4F31962830310571F642
:1027100081E00034180709F0B9CF04E610E020E2A8
:1027200030E040EF51E060E488E70E948A16892B90
:1027300061F4C095D0958091150290911602C8233E
:10274000D923D0931602C0931502CDB7DEB7EEE0C1
:102750000C94BF208295880F807680931D0198018C
:10276000369527953695279520932001815E809395
:102770001E011092210163CF4A5B5D4F04E610E019
:1027800020E230E0D0CF8091130290911402911199
:1027900003C091E089270895882369F062E070E022
:1027A0008CE991E00E941412892B19F08091130298
:1027B00008951092130280911302EBCF81E00895E7
:1027C0000E94DE1308950F931F93809114028823B3
:1027D00079F180914604909147040E94AC19C29708
:1027E00060F00E949419909347048093460460E03F
:1027F00080E00E949F120E94E0130E94DB128091F1
:1028000013028823A9F00E94A01900914804109196
:10281000490420914A0430914B04601B710B820BD8
:10282000930B6F3F7F4F8F4F9F4710F40E94C3134E
:102830001F910F910895CF93DF93EC01FB018281EB
:10284000882309F4D2C09E0130572332310508F0A5
:10285000B2C00E94C70A90932F0280932E02FE01FD
:10286000E150F047E232F10520F4E45CFE4D0C94B7
:10287000992080912E02816080932E0293C08091D6
:102880002F02886080932F028DC080912E0282607B
:10289000F3CF80912E028460EFCF80912E0288606A
:1028A000EBCF80912F028160EDCF80912F0282606B
:1028B000E9CF80912E028061DFCF80912E0280626D
:1028C000DBCF80912E028064D7CF0E944C0580918F
:1028D0002E028068D1CF80912E028C60CDCF809166
:1028E0002F028360CFCF80912E028E7FC5CF809143
:1028F0002F02877FC7CF80912E028D7FBDCF809121
:102900002E028B7FB9CF80912E02877FB5CF809129
:102910002F028E7FB7CF80912F028D7FB3CF809112
:102920002E028F7EA9CF80912E028F7DA5CF809120
:102930002E028F7BA1CF0E944C0580912E028F77B3
:102940009BCF80912E02837F97CF80912F028C7F27
:1029500099CF80912E0282FB992790F921E092274E
:1029600090FB82F990FB83F987CF80912F02982FFB
:10297000909591708E7F892B90FB81F983CF9091F8
:102980002E02892F8F7B96FF806476CF0E944C05A4
:1029900090912E02892F97FB87F980586DCF81E0A7
:1029A0000E94440B80912E0290912F020E94CC0A2B
:1029B0000E944C0580E0DF91CF91089580E0F0CF38
:1029C00090912E02892F8F7E94FF806155CF909138
:1029D0002E02892F8E7F90FF81604ECF90912F0223
:1029E000892F877F93FF88604DCF81E0E4CFCF931D
:1029F000DF93EB0186319C4711F50E94C4099A814F
:102A0000992399F08A7A91E009F490E09093170263
:102A1000811109C089E20E949C090E94050A80E098
:102A2000DF91CF91089585E3F6CF80911702811150
:102A300004C089E20E94A409F0CF85E3FBCF81E0C6
:102A4000EFCF0F931F93CF93DF93C42FD22FFC01AF
:102A500082818823C9F040931A020E9494199093AE
:102A600019028093180280E28C0F883040F4C770FE
:102A700081E001C0880FCA95EAF70E941C03DF912C
:102A8000CF911F910F91089510911A02141332C023
:102A900080911802909119020E94AC19883C91050E
:102AA00048F5C0E2CD0F1D17B9F080E2810F8830E4
:102AB00040F4177081E001C0880F1A95EAF70E9470
:102AC0002303C83048F481E09D2F977001C0880F20
:102AD0009A95EAF70E941C03802F0E941303C830C6
:102AE00070F6D77081E001C0880FDA95EAF70E948E
:102AF0002303C5CF80E28C0F883008F6C77081E0D1
:102B000001C0880FCA95EAF7F2CF0F93DB01885115
:102B10009C4787309105A0F5FC01E25AFE4D0C94CC
:102B2000992006E221EE41EE6AE17CE7CD010E94A8
:102B3000211580E00F91089507E225EE45EE6BE147
:102B40007CE7F4CF06E221EE40EE68E17CE7EECFD1
:102B500007E225EE44EE69E17CE7E8CF06E221EEEC
:102B600042EE6CE17CE7E2CF07E225EE46EE6DE156
:102B70007CE7DCCF08E221E045EE6EE17CE7D6CFD2
:102B800012968C91882319F010921A02D3CF81E00B
:102B9000D1CF1092B9008CE08093B8000895B0E0D6
:102BA000A0E0E5EDF5E10C94A620B82EEB010E9423
:102BB00094196C01EE24E394F12CC431D10560F03A
:102BC00025E0E22EF12CCF3FDC0731F0CE0164E1AD
:102BD00070E00E9485207B0184EAA82E94E8992E5B
:102BE0001092BC00A092BC000E9494198C018091AC
:102BF000BC0087FF0DC08091B900887F8830F9F054
:102C00008091B900887F8031D1F00FEF1FEF08C0AD
:102C1000C8010E94AC19E816F90648F70EEF1FEF3D
:102C2000CF3FDC07E9F2C6010E94AC19C817D907EB
:102C3000B8F6C801CDB7DEB7EBE00C94C220B09275
:102C4000BB009092BC000E9494198C018091BC0042
:102C500087FF0AC08091B900887F883111F08034E5
:102C6000A1F610E000E0E5CFC8010E94AC19E8161B
:102C7000F90660F7D3CF0F931F93CF93DF93EB0148
:102C80008093BB0084E88093BC000E9494198C015F
:102C90008091BC0087FF11C02091B900287F81E09E
:102CA00090E0283211F490E080E0919581959109AF
:102CB000DF91CF911F910F910895CF3FDC0741F332
:102CC000C8010E94AC19C817D90710F78EEF9FEF03
:102CD000EFCFB0E0A0E0EFE6F6E10C94A9206B01A5
:102CE0008A017901B9010E94CF15E6010C0D1D1D65
:102CF000C017D10711F097FF08C024E92093BC004A
:102D0000CDB7DEB7E8E00C94C520B70189910E94E9
:102D10003B16EECFB0E0A0E0E0E9F6E10C94A9208C
:102D2000C62F6A017901B8010E94CF1597FD0CC02A
:102D3000B8018C2F0E943B16E601EC0CFD1CCE1551
:102D4000DF0511F097FF08C024E92093BC00CDB740
:102D5000DEB7E8E00C94C520B80189910E943B16CB
:102D6000EECF84E98093BC0008958EE14A9B02C0B7
:102D70008150E1F74A9BFECF08955A9880E28A95E8
:102D8000F1F75A9A0895FC013BE03A95F1F798E083
:102D900020E080E031E040E14A95F1F7880F4A9B5E
:102DA00002C08160232742E04A95F1F7000040E12C
:102DB0004A95F1F7915079F790E19A95F1F799B129
:102DC00032E03A95F1F7000040E14A95F1F792FBC5
:102DD000992790F992272081920F90830895A1E07E
:102DE000B0E0E5EFF6E10C94AB2019828C017C0198
:102DF000E60EF11C0E151F0541F481E09981911139
:102E000080E02196E6E00C94C7200E94B516CE0122
:102E100001960E94C316F80181938F01EBCF529A5D
:102E20005A9A089552985A9AEA9AE9E6F0E080810F
:102E30008F7C808308956150770B91E001C0990FDA
:102E40006A95EAF720E031E0911108C0222391F061
:102E50005A9A80E28A95F1F75A980895492F4823A3
:102E600039F05A9A232740E24A95F1F79695ECCF2C
:102E70005A98F9CF5A98EDCFFF920F931F93CF93A3
:102E8000DF93EC018C01060F111DC017D10729F447
:102E9000CDB7DEB7E5E00C94C820F9900E94BD16CE
:102EA00068E08F2D0E941B17F0CF1F920F920FB674
:102EB0000F9211240F931F932F933F934F935F9380
:102EC0006F937F938F939F93AF93BF93EF93FF93F2
:102ED000CF93DF930F92CDB7DEB719820E94B5165C
:102EE000CE0101960E94C316082F069506950695F9
:102EF000282F22952570902F9570290F922F93706F
:102F000026952695920F982797708981982B09F01E
:102F10005CC0043008F059C080E18A95F1F75A9AF4
:102F2000529A82E08A95F1F700C05A9888E0089F8B
:102F300080011124D801AD5FBE4F1696ED91FC9132
:102F400017973097A9F06091360170913701149668
:102F50002D913C911597260F371F11968D919C91BD
:102F60001297680F791F13964C9113978C910995BE
:102F7000F801ED5FFE4F6381662351F02091360129
:102F80003091370184819581820F931F0E943C17F5
:102F90000E94BD1680E18A95F1F75A9852985A9A84
:102FA00080E18A95F1F7F801ED5FFE4F60816623BD
:102FB00051F0209136013091370181819281820F49
:102FC000931F0E94EF160E94B5160F90DF91CF91CC
:102FD000FF91EF91BF91AF919F918F917F916F91F1
:102FE0005F914F913F912F911F910F910F900FBEC5
:102FF0000F901F9018950F931F93CF93DF93EC01C1
:1030000004970CF04CC0F894529A5A9885E08A952F
:10301000F1F700009C2F969595708C2F8570980F76
:10302000892F83709695969523E0CC0FDD1F2A9506
:10303000E1F7980F8E01092B0E94BD1600C068E0D1
:10304000802F0E941B1780E18A95F1F752985A9AB7
:103050004A9B1EC087E090E04A991CC0FE01ED5FCC
:10306000FE4F63816623F9F02091360130913701DC
:1030700084819581820F931F0E94EF16811113C0E6
:10308000529A5A9A7894DF91CF911F910F91089597
:1030900000C0DECF019729F4529A5A9A789480E0C2
:1030A000F2CF00C0D9CF0E94B51680E28A95F1F721
:1030B0005A98529A80E18A95F1F7CD5FDE4F688188
:1030C000662351F0209136013091370189819A8130
:1030D000820F931F0E943C170E94BD16789481E0D6
:1030E000D2CF9093410180934001089590931D02A7
:1030F00080931C0208950E94EB0F811103C0809100
:103100001B020895E0911C02F0911D02309729F0F6
:103110000190F081E02D0995089580E00895E091F7
:103120001C02F0911D02309721F00280F381E02D06
:10313000099508959C012E5F3F4FAC01485F5F4F9A
:1031400080E02417350709F40895F90191919F0152
:103150009923B9F38F5FF5CF662349F0FC013296CE
:1031600008962191261729F0E817F907D1F780E092
:10317000089581E008959C01FC0132969FEF80E064
:103180004191461751F09F3F19F4411101C0982F0A
:103190008F5F8630A9F79F3F09F40895290F311DED
:1031A00097FD3A95F90162830895FC0132960896DD
:1031B0002191261303C0DF0111971C92E817F9072C
:1031C000B9F708950E94BB1808950E94D518089574
:1031D000029626E0FC0111922A95E9F708950895D8
:1031E0000E94EF180895811106C081E080931E02AD
:1031F0000E94F018089582E0F9CF83E080931E02C8
:103200000E94F01808950E94F318089581E08093B9
:103210001E020E94F01808950E940619089508954C
:1032200008950E9410190895089508950E940F1995
:103230000895CF930E9414190E946F0F0E941519D0
:10324000C0E08C2F0E94480E811105C0CF5FCA30AC
:10325000C1F7CF91089581E0FCCF85B7806885BF25
:1032600085B7806885BF08951F921FB61F921124ED
:103270008F939F93AF93BF9380911F02811113C0CF
:1032800080914E0490914F04A0915004B09151044C
:103290004196A11DB11D80934E0490934F04A093BD
:1032A0005004B0935104BF91AF919F918F911F90A3
:1032B0001FBE1F90189580915604843031F10E94F2
:1032C0002F0210921F0288E190E020E40FB6F894DC
:1032D000A895809360000FBE2093600083B7817F24
:1032E000846083BF83B7816083BF7894889583B7F8
:1032F0008E7F83BF0FB6F894A89580916000886197
:1033000080936000109260000FBE08950E944C05EB
:103310000E943602089582E084BD93E095BD9AEF45
:1033200097BD80936E0008952FB7F89480914E0456
:1033300090914F04A0915004B09151042FBF089573
:103340002FB7F89460914E0470914F04809150040F
:10335000909151042FBF08959C014FB7F89480912C
:103360004E0490914F04A0915004B09151044FBF6E
:10337000821B930B0895CF92DF92EF92FF922FB7AB
:10338000F894C0904E04D0904F04E0905004F09018
:1033900051042FBFA7019601261B370B480B590B71
:1033A000CA01B901FF90EF90DF90CF900895789413
:1033B0001F921FB61F9211248F939F93AF93BF93B9
:1033C00080914E0490914F04A0915004B09151040B
:1033D0000196A11DB11D80934E0490934F04A093BC
:1033E0005004B0935104BF91AF919F918F911F9062
:1033F0001FBE1F90189587E797E790930108809369
:10340000000888E19AE00FB6F894A89580936000D0
:103410000FBE90936000FFCF88E19AE00FB6F8945A
:10342000A895809360000FBE90936000FFCF8091BD
:1034300028020895089508959B01BA0190915604B9
:103440009430E9F48F708093E9009FEF8091E80059
:10345000915085FD06C085ED8A95F1F70000911128
:10346000F5CF8091E80085FF0AC050E040E0C90137
:103470000E94EC1B8091E8008E778093E80008950D
:10348000CF93DF93EC0148E050E0BC0181E00E9463
:103490001C1A88E0FE01A0E2B2E001900D928A952C
:1034A000E1F7DF91CF91089580915504811109C012
:1034B0000E947C1D0E94D91D8091E200846080934F
:1034C000E20008951092550408950E940619089587
:1034D0006091520481E0611101C080E00E94FD18FA
:1034E00008959091560481E0943009F080E0609155
:1034F00052040E940319089542E061EC81E00E94A9
:10350000F81C9091560481E0943009F080E06091BD
:1035100052040E94F318089580915804833009F4EE
:1035200061C030F48130D1F1823009F49EC0089539
:103530008A3009F48AC08B3009F46FC0893009F0F1
:1035400050C080915704813209F04BC080915B04D8
:1035500090915C04892B09F044C08091E800877F3A
:103560008093E8008091E80082FF37C09091F300DB
:103570008091F200029731F48091F100813011F0D6
:10358000863021F48091F100809328028091E80038
:103590008B778093E8000E942C1D23C080915704F4
:1035A000813AF9F48091E800877F8093E800809168
:1035B0005B0490915C04892B61F468E080E292E006
:1035C00070E00E943B1C8091E8008B778093E800BC
:1035D000089560E090E080E0F3CF8091560481117F
:1035E000C1CF089580915704813AD9F780915B0447
:1035F00090915C04892BA9F78091E800877F8093E4
:10360000E8008091E80080FFFCCF80912A01809340
:10361000F1008091E8008E77BCCF80915704813211
:1036200001F780915B0490915C04892BD1F6809125
:10363000E800877F8093E8000E942C1D8091590448
:1036400080932A010E944C0508958091570481328D
:1036500041F68091E800877F8093E8000E942C1D4E
:1036600080915A0480932902089580915704813AE9
:1036700009F0B7CF8091E800877F8093E8008091C0
:10368000E80080FFFCCF80912902C1CF84B7877FFB
:1036900084BF0FB6F894A8958091600088618093EC
:1036A0006000109260000FBE80E890E00FB6F894C2
:1036B00080936100909361000FBE0E940C190895E1
:1036C0000E947C1D0E94D91DE2EEF0E080818460A2
:1036D000808378940E945820089582E291E00E94AD
:1036E0007618089580915604853031F480915604FF
:1036F000853019F00E94861908950E945B19809107
:103700005404882399F30E941919882379F30E949D
:10371000D61B0E944C05EACF08950E94901B089585
:10372000292F332723303105C9F058F421303105D2
:1037300099F122303105A9F190E080E030E020E0FD
:103740001DC02132310509F122323105A9F780E48B
:1037500090E02AE132E0672B79F710C09927813099
:10376000910581F0009729F0029731F7E0ECF1E044
:1037700002C0E2EEF1E0849190E09F01FA01318312
:1037800020830895E0EDF1E0F6CF89E090E028EFA6
:1037900031E0672B89F6F2CF82E190E028E032E059
:1037A000EDCF82E290E026EE31E0E8CF80E189BD06
:1037B00082E189BD09B400FEFDCF8091D8008F7DE4
:1037C0008093D8008091E00082608093E000809137
:1037D000E00081FDFCCF0895AF92BF92CF92DF92BF
:1037E000FF920F931F93CF93DF936C01EB018A013C
:1037F0000E944B1DF82E811123C00115110539F0CF
:10380000F80180819181C81BD90BC80ED91EB12C3B
:10381000A12C2097A9F08091E80085FD22C080911D
:10382000E8008E778093E80001151105A1F0F801FA
:1038300080819181A80EB91EB182A08285E0F82E08
:103840008F2DDF91CF911F910F91FF90DF90CF903F
:10385000BF90AF9008950E944B1D8823D1F2F82E9F
:10386000EFCFF60181916F018093F1002197FFEF77
:10387000AF1ABF0ACECFFC0180915D0490915E0427
:1038800086179707A0F06115710529F49091E8005B
:103890009E779093E80090E06115710551F49111C5
:1038A00008C08091E80082FF34C080E00895BC0128
:1038B000F2CF809156048823C1F18530C1F1809107
:1038C000E80083FD30C08091E80082FDEACF80915E
:1038D000E80080FFE1CF8091F3002091F200382FC3
:1038E0006115710519F02830310558F091E0283044
:1038F000310509F090E02091E8002E772093E80050
:10390000CBCF81918093F100615071092F5F3F4FC0
:10391000E7CF80915604882341F0853041F08091B3
:10392000E80083FFBECF81E0089582E0089583E040
:103930000895FC0180915D0490915E0486179707BD
:10394000A0F06115710529F48091E8008E778093CD
:10395000E80090E06115710551F4911108C0809163
:10396000E80082FF35C080E00895BC01F2CF80916D
:1039700056048823C9F18530C9F18091E80083FDA0
:1039800031C08091E80082FDEACF8091E80080FF9D
:10399000E1CF8091F3002091F200382F611571057D
:1039A00019F02830310558F091E02830310509F040
:1039B00090E08091E8008E778093E800CBCF8491EF
:1039C0008093F1003196615071092F5F3F4FE6CF30
:1039D00080915604882341F0853041F08091E800C1
:1039E00083FFBDCF81E0089582E0089583E00895CC
:1039F000982F973028F08F708093E90081E0089528
:103A00009093E900242F762F50E0981731F07091B1
:103A1000EC002091ED005091F00021FD02C09F5F6D
:103A2000E8CF3091EB003E7F3093EB003091ED001A
:103A30003D7F3093ED003091EB0031603093EB002F
:103A40007093EC002093ED005093F0002091EE0075
:103A500027FDE5CF80E008958091570487FF13C0CC
:103A60008091E80082FF06C08091E8008B77809308
:103A7000E80004C0809156048111F2CF089580912E
:103A800056048823D9F38091E80080FFF8CF809115
:103A9000E8008E77ECCF2091E4003091E50095E6C8
:103AA000A9012091EC00822F817020FF06C0809137
:103AB000E80080FF06C080E008952091E80022FD24
:103AC0001AC080915604882389F0853089F080914E
:103AD000EB0085FD0FC02091E4003091E500421716
:103AE0005307F9F29150E1F684E0089582E00895D9
:103AF00083E0089581E008950E94EB1D0E94F31D6C
:103B0000E0EEF0E0808181608083E8EDF0E080818C
:103B10008F77808319BCA7EDB0E08C918E7F8C935A
:103B200080818F7E80831092550408950F931F9398
:103B3000CF93DF930E94EB1D0E94F31DC8EDD0E0F0
:103B400088818F77888388818068888388818F7D4A
:103B5000888319BC10925604109252041092540497
:103B60001092530400EE10E0F80180818B7F808377
:103B700088818160888342E060E080E00E94F81CD8
:103B8000E1EEF0E080818E7F8083E2EEF0E08081E4
:103B900081608083808188608083F80180818E7F4E
:103BA0008083888180618883DF91CF911F910F91FD
:103BB0000895E8EDF0E080818F7E8083E7EDF0E00E
:103BC00080818160808384E082BF81E0809355049E
:103BD0000E94961D0895E8EDF0E080818E7F80833D
:103BE0001092E20008951092DA001092E100089518
:103BF0001F920F920FB60F9211242F933F934F9362
:103C00005F936F937F938F939F93AF93BF93EF9344
:103C1000FF938091E10082FF0BC08091E20082FF60
:103C200007C08091E1008B7F8093E1000E945720C4
:103C30008091DA0080FF19C08091D80080FF15C004
:103C40008091DA008E7F8093DA008091D90080FF26
:103C500096C080E189BD82E189BD09B400FEFDCF37
:103C600081E0809356040E94541A8091E10080FF05
:103C700019C08091E20080FF15C08091E2008E7F24
:103C80008093E2008091E20080618093E200809165
:103C9000D80080628093D80019BC85E080935604D8
:103CA0000E94681A8091E10084FF2BC08091E2009D
:103CB00084FF27C080E189BD82E189BD89B5982F45
:103CC000917080FFFBCF8091D8008F7D8093D800CA
:103CD0008091E1008F7E8093E1008091E2008F7EF1
:103CE0008093E2008091E20081608093E200809105
:103CF0005204882309F449C084E0809356040E944A
:103D0000711A8091E10083FF29C08091E20083FF56
:103D100025C08091E100877F8093E10082E080935D
:103D20005604109252048091E1008E7F8093E1004E
:103D30008091E2008E7F8093E2008091E2008061BA
:103D40008093E20042E060E080E00E94F81C8091F5
:103D5000F00088608093F0000E94651AFF91EF9157
:103D6000BF91AF919F918F917F916F915F914F9193
:103D70003F912F910F900FBE0F901F90189519BC77
:103D8000109256040E94621A70CF8091E30087FD62
:103D900093E090935604B3CF1F920F920FB60F92F9
:103DA00011242F933F934F935F936F937F938F9340
:103DB0009F93AF93BF93CF93DF93EF93FF93D091F4
:103DC000E900DF708091EC00C82FC17080FDC0E871
:103DD0001092E9008091F000877F8093F000789442
:103DE0000E94101F1092E9008091F000886080937B
:103DF000F000CD2BCF70C093E900FF91EF91DF91E0
:103E0000CF91BF91AF919F918F917F916F915F9172
:103E10004F913F912F910F900FBE0F901F901895CB
:103E2000AAE2B0E0E6E1FFE10C94AE2087E594E081
:103E30002091F100FC012193CF01F4E08F359F0721
:103E4000B9F70E948C1A8091E80083FF1EC180910F
:103E50005704909158049A3008F017C1E92FF0E008
:103E6000EB59FE4D0C949920803899F0823809F076
:103E70000CC180915B048F70873008F006C180937D
:103E8000E9008091EB0085FB882780F91092E9001A
:103E900006C08091530490915404911182609091D6
:103EA000E800977F9093E8008093F1001092F10072
:103EB0008091E8008E77E5C0882309F4D3C0823072
:103EC00009F0E3C0809159048111D6C080915B0450
:103ED0008F702FEF280F263008F0D7C08093E900AD
:103EE0002091EB0020FFC8C0933031F48091EB00AB
:103EF00080628093EB00C0C09091EB009061909342
:103F0000EB0021E030E001C0220F8A95EAF7209310
:103F1000EA001092EA008091EB008860EACF8111FC
:103F2000B4C0109159041F778091E3008078812BF1
:103F30008093E3008091E800877F8093E8000E94EF
:103F40002C1D8091E80080FFFCCF8091E300806809
:103F50008093E30082E0111183E08093560495C0C2
:103F60008058823008F091C08091590490915A0491
:103F70008C3D23E09207A1F583E08A838AE289835E
:103F80004FB7F894DE01139620E03EE051E2E32FB4
:103F9000F0E050935700E49120FF03C0E295EF70EA
:103FA0003F5FEF708E2F90E0EA30C0F0C7968D93A0
:103FB0009D932F5F243159F74FBF8091E800877F91
:103FC0008093E8006AE270E0CE0101960E943B1CFB
:103FD0008091E8008B778093E80057C0C096E7CFC8
:103FE00060915B0470915C04AE014F5F5F4F0E9473
:103FF0008D1BBC01892B09F448C09091E800977F84
:104000009093E80089819A810E94991CE1CF8038C1
:10401000E1F58091E800877F8093E8008091520469
:104020008093F10045CF811130C0909159049230B6
:1040300060F58091E800877F8093E80090935204B8
:104040000E942C1D80915204882311F084E005C049
:104050008091E30087FDFACF81E0809356040E94AF
:104060007C1A13C080915904813079F481E0933037
:1040700009F080E0809354041092E9008091E800F8
:10408000877F8093E8000E942C1D8091E80083FFC9
:104090000AC08091E800877F8093E8008091EB0060
:1040A00080628093EB00AA96E3E00C94CA20089506
:1040B000CF93809156048823A1F0C091E900CF707E
:1040C0009091EC00892F817090FD80E8C82B1092B0
:1040D000E9008091E80083FD0E94101FCF70C0931B
:1040E000E900CF9108950E947C1D10925604089516
:1040F000E8EDF0E08081806180838AE18A95F1F7C4
:1041000000C08091D90081700895AA1BBB1B51E1AA
:1041100007C0AA1FBB1FA617B70710F0A61BB70B37
:10412000881F991F5A95A9F780959095BC01CD01DC
:104130000895EE0FFF1F0590F491E02D09942F9242
:104140003F924F925F926F927F928F929F92AF9227
:10415000BF92CF92DF92EF92FF920F931F93CF9374
:10416000DF93CDB7DEB7CA1BDB0B0FB6F894DEBF0B
:104170000FBECDBF09942A88398848885F846E8431
:104180007D848C849B84AA84B984C884DF80EE807B
:10419000FD800C811B81AA81B981CE0FD11D0FB684
:1041A000F894DEBF0FBECDBFED010895FB01DC0129
:1041B00004C08D910190801921F441505040C8F7FE
:1041C000881B990B0895FB01DC0102C001900D9240
:1041D00041505040D8F70895F999FECF92BD81BD66
:1041E000F89A992780B50895A8E1B0E042E050E040
:1041F0000C942021262FF999FECF92BD81BDF89A0B
:10420000019700B4021639F01FBA20BD0FB6F8941A
:10421000FA9AF99A0FBE08950396272F0E94FB2061
:104220000E94FA20252F0E94FB20242F0C94FB20B3
:104230000196272F0E94FB200C94FA20DC01CB0171
:10424000FC01F999FECF06C0F2BDE1BDF89A3196A6
:1042500000B40D9241505040B8F70895F894FFCF44
:104260006503650396039603C503C503C503C5032C
:1042700028049904A804A8047314E7147B144514B3
:1042800049147F144D1483148F145914E0145D14D1
:10429000931461149714BF1465149B14C6146B1403
:1042A000A114A9145114871455148B146F14A51458
:1042B000B514CF14DE143F147714EE14A215A8150C
:1042C00091159C15AE15B415BA15341F5C1F452009
:0E42D0005C1F45208F1FB01F452007201320C4
:1042DE00AE01010000000100000000000000050119
:1042EE0000000004060000000000000021007F22F4
:1042FE000003171A401A1B1A1A1A01F6F731333235
:10430E00366697C63435D501000810181810080007
:00000001FF
